{
  "address": "0xEb5aa15472c2d52A34BefbbBA5D101A4a7e69948",
  "abi": [
    {
      "inputs": [
        {
          "internalType": "address",
          "name": "vrfCoordinatorV2",
          "type": "address"
        },
        {
          "internalType": "bytes32",
          "name": "gasLane",
          "type": "bytes32"
        },
        {
          "internalType": "uint64",
          "name": "subscriptionId",
          "type": "uint64"
        },
        {
          "internalType": "uint32",
          "name": "callBackGasLimit",
          "type": "uint32"
        },
        {
          "internalType": "string[4]",
          "name": "characterTokenUris",
          "type": "string[4]"
        }
      ],
      "stateMutability": "nonpayable",
      "type": "constructor"
    },
    {
      "inputs": [
        {
          "internalType": "address",
          "name": "have",
          "type": "address"
        },
        {
          "internalType": "address",
          "name": "want",
          "type": "address"
        }
      ],
      "name": "OnlyCoordinatorCanFulfill",
      "type": "error"
    },
    {
      "anonymous": false,
      "inputs": [
        {
          "indexed": true,
          "internalType": "address",
          "name": "owner",
          "type": "address"
        },
        {
          "indexed": true,
          "internalType": "address",
          "name": "approved",
          "type": "address"
        },
        {
          "indexed": true,
          "internalType": "uint256",
          "name": "tokenId",
          "type": "uint256"
        }
      ],
      "name": "Approval",
      "type": "event"
    },
    {
      "anonymous": false,
      "inputs": [
        {
          "indexed": true,
          "internalType": "address",
          "name": "owner",
          "type": "address"
        },
        {
          "indexed": true,
          "internalType": "address",
          "name": "operator",
          "type": "address"
        },
        {
          "indexed": false,
          "internalType": "bool",
          "name": "approved",
          "type": "bool"
        }
      ],
      "name": "ApprovalForAll",
      "type": "event"
    },
    {
      "anonymous": false,
      "inputs": [
        {
          "indexed": true,
          "internalType": "address",
          "name": "from",
          "type": "address"
        },
        {
          "indexed": true,
          "internalType": "address",
          "name": "to",
          "type": "address"
        },
        {
          "indexed": true,
          "internalType": "uint256",
          "name": "tokenId",
          "type": "uint256"
        }
      ],
      "name": "Transfer",
      "type": "event"
    },
    {
      "inputs": [],
      "name": "MAX_CHANCE_VALUE",
      "outputs": [
        {
          "internalType": "uint256",
          "name": "",
          "type": "uint256"
        }
      ],
      "stateMutability": "view",
      "type": "function"
    },
    {
      "inputs": [],
      "name": "NUM_WORDS",
      "outputs": [
        {
          "internalType": "uint32",
          "name": "",
          "type": "uint32"
        }
      ],
      "stateMutability": "view",
      "type": "function"
    },
    {
      "inputs": [],
      "name": "REQUEST_CONFIRMATIONS",
      "outputs": [
        {
          "internalType": "uint16",
          "name": "",
          "type": "uint16"
        }
      ],
      "stateMutability": "view",
      "type": "function"
    },
    {
      "inputs": [
        {
          "internalType": "address",
          "name": "to",
          "type": "address"
        },
        {
          "internalType": "uint256",
          "name": "tokenId",
          "type": "uint256"
        }
      ],
      "name": "approve",
      "outputs": [],
      "stateMutability": "nonpayable",
      "type": "function"
    },
    {
      "inputs": [
        {
          "internalType": "address",
          "name": "owner",
          "type": "address"
        }
      ],
      "name": "balanceOf",
      "outputs": [
        {
          "internalType": "uint256",
          "name": "",
          "type": "uint256"
        }
      ],
      "stateMutability": "view",
      "type": "function"
    },
    {
      "inputs": [
        {
          "internalType": "uint256",
          "name": "tokenId",
          "type": "uint256"
        }
      ],
      "name": "getApproved",
      "outputs": [
        {
          "internalType": "address",
          "name": "",
          "type": "address"
        }
      ],
      "stateMutability": "view",
      "type": "function"
    },
    {
      "inputs": [],
      "name": "getChanceArray",
      "outputs": [
        {
          "internalType": "uint256[4]",
          "name": "",
          "type": "uint256[4]"
        }
      ],
      "stateMutability": "view",
      "type": "function"
    },
    {
      "inputs": [
        {
          "internalType": "uint256",
          "name": "moddedRng",
          "type": "uint256"
        }
      ],
      "name": "getCharacterFromModdedRng",
      "outputs": [
        {
          "internalType": "uint256",
          "name": "",
          "type": "uint256"
        }
      ],
      "stateMutability": "nonpayable",
      "type": "function"
    },
    {
      "inputs": [],
      "name": "i_callbackGasLimit",
      "outputs": [
        {
          "internalType": "uint32",
          "name": "",
          "type": "uint32"
        }
      ],
      "stateMutability": "view",
      "type": "function"
    },
    {
      "inputs": [],
      "name": "i_gasLane",
      "outputs": [
        {
          "internalType": "bytes32",
          "name": "",
          "type": "bytes32"
        }
      ],
      "stateMutability": "view",
      "type": "function"
    },
    {
      "inputs": [],
      "name": "i_subscriptionId",
      "outputs": [
        {
          "internalType": "uint64",
          "name": "",
          "type": "uint64"
        }
      ],
      "stateMutability": "view",
      "type": "function"
    },
    {
      "inputs": [],
      "name": "i_vrfCoordinator",
      "outputs": [
        {
          "internalType": "contract VRFCoordinatorV2Interface",
          "name": "",
          "type": "address"
        }
      ],
      "stateMutability": "view",
      "type": "function"
    },
    {
      "inputs": [
        {
          "internalType": "address",
          "name": "owner",
          "type": "address"
        },
        {
          "internalType": "address",
          "name": "operator",
          "type": "address"
        }
      ],
      "name": "isApprovedForAll",
      "outputs": [
        {
          "internalType": "bool",
          "name": "",
          "type": "bool"
        }
      ],
      "stateMutability": "view",
      "type": "function"
    },
    {
      "inputs": [],
      "name": "name",
      "outputs": [
        {
          "internalType": "string",
          "name": "",
          "type": "string"
        }
      ],
      "stateMutability": "view",
      "type": "function"
    },
    {
      "inputs": [
        {
          "internalType": "uint256",
          "name": "tokenId",
          "type": "uint256"
        }
      ],
      "name": "ownerOf",
      "outputs": [
        {
          "internalType": "address",
          "name": "",
          "type": "address"
        }
      ],
      "stateMutability": "view",
      "type": "function"
    },
    {
      "inputs": [
        {
          "internalType": "uint256",
          "name": "requestId",
          "type": "uint256"
        },
        {
          "internalType": "uint256[]",
          "name": "randomWords",
          "type": "uint256[]"
        }
      ],
      "name": "rawFulfillRandomWords",
      "outputs": [],
      "stateMutability": "nonpayable",
      "type": "function"
    },
    {
      "inputs": [],
      "name": "requestTradingCard",
      "outputs": [
        {
          "internalType": "uint256",
          "name": "requestId",
          "type": "uint256"
        }
      ],
      "stateMutability": "nonpayable",
      "type": "function"
    },
    {
      "inputs": [
        {
          "internalType": "uint256",
          "name": "",
          "type": "uint256"
        }
      ],
      "name": "s_characterTokenUris",
      "outputs": [
        {
          "internalType": "string",
          "name": "",
          "type": "string"
        }
      ],
      "stateMutability": "view",
      "type": "function"
    },
    {
      "inputs": [
        {
          "internalType": "uint256",
          "name": "",
          "type": "uint256"
        }
      ],
      "name": "s_requestIdToSender",
      "outputs": [
        {
          "internalType": "address",
          "name": "",
          "type": "address"
        }
      ],
      "stateMutability": "view",
      "type": "function"
    },
    {
      "inputs": [],
      "name": "s_tokenCounter",
      "outputs": [
        {
          "internalType": "uint256",
          "name": "",
          "type": "uint256"
        }
      ],
      "stateMutability": "view",
      "type": "function"
    },
    {
      "inputs": [
        {
          "internalType": "address",
          "name": "from",
          "type": "address"
        },
        {
          "internalType": "address",
          "name": "to",
          "type": "address"
        },
        {
          "internalType": "uint256",
          "name": "tokenId",
          "type": "uint256"
        }
      ],
      "name": "safeTransferFrom",
      "outputs": [],
      "stateMutability": "nonpayable",
      "type": "function"
    },
    {
      "inputs": [
        {
          "internalType": "address",
          "name": "from",
          "type": "address"
        },
        {
          "internalType": "address",
          "name": "to",
          "type": "address"
        },
        {
          "internalType": "uint256",
          "name": "tokenId",
          "type": "uint256"
        },
        {
          "internalType": "bytes",
          "name": "_data",
          "type": "bytes"
        }
      ],
      "name": "safeTransferFrom",
      "outputs": [],
      "stateMutability": "nonpayable",
      "type": "function"
    },
    {
      "inputs": [
        {
          "internalType": "address",
          "name": "operator",
          "type": "address"
        },
        {
          "internalType": "bool",
          "name": "approved",
          "type": "bool"
        }
      ],
      "name": "setApprovalForAll",
      "outputs": [],
      "stateMutability": "nonpayable",
      "type": "function"
    },
    {
      "inputs": [
        {
          "internalType": "bytes4",
          "name": "interfaceId",
          "type": "bytes4"
        }
      ],
      "name": "supportsInterface",
      "outputs": [
        {
          "internalType": "bool",
          "name": "",
          "type": "bool"
        }
      ],
      "stateMutability": "view",
      "type": "function"
    },
    {
      "inputs": [],
      "name": "symbol",
      "outputs": [
        {
          "internalType": "string",
          "name": "",
          "type": "string"
        }
      ],
      "stateMutability": "view",
      "type": "function"
    },
    {
      "inputs": [
        {
          "internalType": "uint256",
          "name": "tokenId",
          "type": "uint256"
        }
      ],
      "name": "tokenURI",
      "outputs": [
        {
          "internalType": "string",
          "name": "",
          "type": "string"
        }
      ],
      "stateMutability": "view",
      "type": "function"
    },
    {
      "inputs": [
        {
          "internalType": "address",
          "name": "from",
          "type": "address"
        },
        {
          "internalType": "address",
          "name": "to",
          "type": "address"
        },
        {
          "internalType": "uint256",
          "name": "tokenId",
          "type": "uint256"
        }
      ],
      "name": "transferFrom",
      "outputs": [],
      "stateMutability": "nonpayable",
      "type": "function"
    }
  ],
  "transactionHash": "0x58c5a4980b6fb753f7845e0a8567d661eb9e002cfd45dbce9f6a7cfd9f4d1699",
  "args": [
    "0x6168499c0cFfCaCD319c818142124B7A15E857ab",
    "0xd89b2bf150e3b9e13446986e571fb9cab24b13cea0a43ea20a6049a85cc807cc",
    "3665",
    "500000",
    [
      "https://ipfs.io/ipfs/QmPRDFwyVF7n2szwp7udjRWZzYWo63T1DEjFgprmPdSrof?filename=RidyrCaskajaro.png",
      "https://ipfs.io/ipfs/QmWULePrSA8xj7eArj9AWjXBH6TyTs3vv2zVuSNK9WvEoc?filename=SudiShanks.png",
      "https://ipfs.io/ipfs/QmSMLkucD7mMxhPR5SuUkRus4EA5y3RpiCAcogbCRGGuFF?filename=TitchDeepstrider.png",
      "https://ipfs.io/ipfs/QmQwycB1kTLkpTp17vxx4NxANkU7pbQgwQhnoSthjXvrWe?filename=VzaniPuddle.png"
    ]
  ],
  "numDeployments": 1,
  "solcInputHash": "409f0a96a46097876859a9552d1c67b7",
  "bytecode": "0x6101206040523480156200001257600080fd5b5060405162003f8938038062003f898339818101604052810190620000389190620004c3565b846040518060400160405280600c81526020017f54726164696e67204361726400000000000000000000000000000000000000008152506040518060400160405280600381526020017f54444300000000000000000000000000000000000000000000000000000000008152508160009080519060200190620000bd929190620001ae565b508060019080519060200190620000d6929190620001ae565b5050508073ffffffffffffffffffffffffffffffffffffffff1660808173ffffffffffffffffffffffffffffffffffffffff1660601b81525050508473ffffffffffffffffffffffffffffffffffffffff1660a08173ffffffffffffffffffffffffffffffffffffffff1660601b815250508360c081815250508267ffffffffffffffff1660e08167ffffffffffffffff1660c01b815250508163ffffffff166101008163ffffffff1660e01b815250506000600c81905550806008906004620001a29291906200023f565b505050505050620007e6565b828054620001bc906200068a565b90600052602060002090601f016020900481019282620001e057600085556200022c565b82601f10620001fb57805160ff19168380011785556200022c565b828001600101855582156200022c579182015b828111156200022b5782518255916020019190600101906200020e565b5b5090506200023b919062000299565b5090565b826004810192821562000286579160200282015b828111156200028557825182908051906020019062000274929190620001ae565b509160200191906001019062000253565b5b509050620002959190620002b8565b5090565b5b80821115620002b45760008160009055506001016200029a565b5090565b5b80821115620002dc5760008181620002d29190620002e0565b50600101620002b9565b5090565b508054620002ee906200068a565b6000825580601f1062000302575062000323565b601f01602090049060005260206000209081019062000322919062000299565b5b50565b60006200033d620003378462000593565b6200056a565b905080828560208602820111156200035a576200035962000759565b5b60005b85811015620003af57815167ffffffffffffffff81111562000384576200038362000754565b5b80860162000393898262000462565b855260208501945060208401935050506001810190506200035d565b5050509392505050565b6000620003d0620003ca84620005bc565b6200056a565b905082815260208101848484011115620003ef57620003ee6200075e565b5b620003fc84828562000654565b509392505050565b60008151905062000415816200077e565b92915050565b600082601f83011262000433576200043262000754565b5b60046200044284828562000326565b91505092915050565b6000815190506200045c8162000798565b92915050565b600082601f8301126200047a576200047962000754565b5b81516200048c848260208601620003b9565b91505092915050565b600081519050620004a681620007b2565b92915050565b600081519050620004bd81620007cc565b92915050565b600080600080600060a08688031215620004e257620004e162000768565b5b6000620004f28882890162000404565b955050602062000505888289016200044b565b94505060406200051888828901620004ac565b93505060606200052b8882890162000495565b925050608086015167ffffffffffffffff8111156200054f576200054e62000763565b5b6200055d888289016200041b565b9150509295509295909350565b60006200057662000589565b9050620005848282620006c0565b919050565b6000604051905090565b600067ffffffffffffffff821115620005b157620005b062000725565b5b602082029050919050565b600067ffffffffffffffff821115620005da57620005d962000725565b5b620005e5826200076d565b9050602081019050919050565b6000620005ff8262000610565b9050919050565b6000819050919050565b600073ffffffffffffffffffffffffffffffffffffffff82169050919050565b600063ffffffff82169050919050565b600067ffffffffffffffff82169050919050565b60005b838110156200067457808201518184015260208101905062000657565b8381111562000684576000848401525b50505050565b60006002820490506001821680620006a357607f821691505b60208210811415620006ba57620006b9620006f6565b5b50919050565b620006cb826200076d565b810181811067ffffffffffffffff82111715620006ed57620006ec62000725565b5b80604052505050565b7f4e487b7100000000000000000000000000000000000000000000000000000000600052602260045260246000fd5b7f4e487b7100000000000000000000000000000000000000000000000000000000600052604160045260246000fd5b600080fd5b600080fd5b600080fd5b600080fd5b600080fd5b6000601f19601f8301169050919050565b6200078981620005f2565b81146200079557600080fd5b50565b620007a38162000606565b8114620007af57600080fd5b50565b620007bd8162000630565b8114620007c957600080fd5b50565b620007d78162000640565b8114620007e357600080fd5b50565b60805160601c60a05160601c60c05160e05160c01c6101005160e01c61372f6200085a60003960008181610909015261111a0152600081816108e60152610b350152600081816108c50152610da20152600081816108890152610f420152600081816109f50152610a49015261372f6000f3fe608060405234801561001057600080fd5b50600436106101a95760003560e01c806370a08231116100f9578063a36f573b11610097578063c87b56dd11610071578063c87b56dd146104d2578063d757d02714610502578063da1b9e2914610520578063e985e9c51461053e576101a9565b8063a36f573b14610468578063aebc455014610498578063b88d4fde146104b6576101a9565b80638e879c8a116100d35780638e879c8a146103e057806395d89b41146103fe578063976fe1821461041c578063a22cb4651461044c576101a9565b806370a082311461036257806372cf6e3414610392578063806091d3146103b0576101a9565b80631fe543e311610166578063470cdf9711610140578063470cdf97146102d85780635dacf5f4146102f65780636352211e1461031457806367f082b014610344576101a9565b80631fe543e31461028457806323b872dd146102a057806342842e0e146102bc576101a9565b806301ffc9a7146101ae57806306fdde03146101de578063081812fc146101fc578063095ea7b31461022c5780630b21a83b146102485780630d0b9b2914610266575b600080fd5b6101c860048036038101906101c3919061247e565b61056e565b6040516101d59190612a26565b60405180910390f35b6101e6610650565b6040516101f39190612aca565b60405180910390f35b610216600480360381019061021191906124d8565b6106e2565b604051610223919061297b565b60405180910390f35b6102466004803603810190610241919061243e565b610767565b005b61025061087f565b60405161025d9190612d07565b60405180910390f35b61026e610885565b60405161027b9190612d07565b60405180910390f35b61029e60048036038101906102999190612532565b6109f3565b005b6102ba60048036038101906102b59190612328565b610ab3565b005b6102d660048036038101906102d19190612328565b610b13565b005b6102e0610b33565b6040516102ed9190612d3d565b60405180910390f35b6102fe610b57565b60405161030b9190612a0b565b60405180910390f35b61032e600480360381019061032991906124d8565b610b89565b60405161033b919061297b565b60405180910390f35b61034c610c3b565b6040516103599190612cec565b60405180910390f35b61037c600480360381019061037791906122bb565b610c40565b6040516103899190612d07565b60405180910390f35b61039a610cf8565b6040516103a79190612d22565b60405180910390f35b6103ca60048036038101906103c591906124d8565b610cfd565b6040516103d79190612aca565b60405180910390f35b6103e8610da0565b6040516103f59190612a41565b60405180910390f35b610406610dc4565b6040516104139190612aca565b60405180910390f35b610436600480360381019061043191906124d8565b610e56565b6040516104439190612d07565b60405180910390f35b610466600480360381019061046191906123fe565b610ef7565b005b610482600480360381019061047d91906124d8565b610f0d565b60405161048f919061297b565b60405180910390f35b6104a0610f40565b6040516104ad9190612aaf565b60405180910390f35b6104d060048036038101906104cb919061237b565b610f64565b005b6104ec60048036038101906104e791906124d8565b610fc6565b6040516104f99190612aca565b60405180910390f35b61050a611118565b6040516105179190612d22565b60405180910390f35b61052861113c565b6040516105359190612d07565b60405180910390f35b610558600480360381019061055391906122e8565b611141565b6040516105659190612a26565b60405180910390f35b60007f80ac58cd000000000000000000000000000000000000000000000000000000007bffffffffffffffffffffffffffffffffffffffffffffffffffffffff1916827bffffffffffffffffffffffffffffffffffffffffffffffffffffffff1916148061063957507f5b5e139f000000000000000000000000000000000000000000000000000000007bffffffffffffffffffffffffffffffffffffffffffffffffffffffff1916827bffffffffffffffffffffffffffffffffffffffffffffffffffffffff1916145b806106495750610648826111d5565b5b9050919050565b60606000805461065f9061302d565b80601f016020809104026020016040519081016040528092919081815260200182805461068b9061302d565b80156106d85780601f106106ad576101008083540402835291602001916106d8565b820191906000526020600020905b8154815290600101906020018083116106bb57829003601f168201915b5050505050905090565b60006106ed8261123f565b61072c576040517f08c379a000000000000000000000000000000000000000000000000000000000815260040161072390612c6c565b60405180910390fd5b6004600083815260200190815260200160002060009054906101000a900473ffffffffffffffffffffffffffffffffffffffff169050919050565b600061077282610b89565b90508073ffffffffffffffffffffffffffffffffffffffff168373ffffffffffffffffffffffffffffffffffffffff1614156107e3576040517f08c379a00000000000000000000000000000000000000000000000000000000081526004016107da90612cac565b60405180910390fd5b8073ffffffffffffffffffffffffffffffffffffffff166108026112ab565b73ffffffffffffffffffffffffffffffffffffffff16148061083157506108308161082b6112ab565b611141565b5b610870576040517f08c379a000000000000000000000000000000000000000000000000000000000815260040161086790612bac565b60405180910390fd5b61087a83836112b3565b505050565b600c5481565b60007f000000000000000000000000000000000000000000000000000000000000000073ffffffffffffffffffffffffffffffffffffffff16635d3b1d307f00000000000000000000000000000000000000000000000000000000000000007f000000000000000000000000000000000000000000000000000000000000000060037f000000000000000000000000000000000000000000000000000000000000000060016040518663ffffffff1660e01b815260040161094a959493929190612a5c565b602060405180830381600087803b15801561096457600080fd5b505af1158015610978573d6000803e3d6000fd5b505050506040513d601f19601f8201168201806040525081019061099c9190612505565b9050336007600083815260200190815260200160002060006101000a81548173ffffffffffffffffffffffffffffffffffffffff021916908373ffffffffffffffffffffffffffffffffffffffff16021790555090565b7f000000000000000000000000000000000000000000000000000000000000000073ffffffffffffffffffffffffffffffffffffffff163373ffffffffffffffffffffffffffffffffffffffff1614610aa557337f00000000000000000000000000000000000000000000000000000000000000006040517f1cf993f4000000000000000000000000000000000000000000000000000000008152600401610a9c929190612996565b60405180910390fd5b610aaf828261136c565b5050565b610ac4610abe6112ab565b826114b2565b610b03576040517f08c379a0000000000000000000000000000000000000000000000000000000008152600401610afa90612ccc565b60405180910390fd5b610b0e838383611590565b505050565b610b2e83838360405180602001604052806000815250610f64565b505050565b7f000000000000000000000000000000000000000000000000000000000000000081565b610b5f61206a565b6040518060800160405280600a815260200160148152602001601e81526020016064815250905090565b6000806002600084815260200190815260200160002060009054906101000a900473ffffffffffffffffffffffffffffffffffffffff169050600073ffffffffffffffffffffffffffffffffffffffff168173ffffffffffffffffffffffffffffffffffffffff161415610c32576040517f08c379a0000000000000000000000000000000000000000000000000000000008152600401610c2990612bec565b60405180910390fd5b80915050919050565b600381565b60008073ffffffffffffffffffffffffffffffffffffffff168273ffffffffffffffffffffffffffffffffffffffff161415610cb1576040517f08c379a0000000000000000000000000000000000000000000000000000000008152600401610ca890612bcc565b60405180910390fd5b600360008373ffffffffffffffffffffffffffffffffffffffff1673ffffffffffffffffffffffffffffffffffffffff168152602001908152602001600020549050919050565b600181565b60088160048110610d0d57600080fd5b016000915090508054610d1f9061302d565b80601f0160208091040260200160405190810160405280929190818152602001828054610d4b9061302d565b8015610d985780601f10610d6d57610100808354040283529160200191610d98565b820191906000526020600020905b815481529060010190602001808311610d7b57829003601f168201915b505050505081565b7f000000000000000000000000000000000000000000000000000000000000000081565b606060018054610dd39061302d565b80601f0160208091040260200160405190810160405280929190818152602001828054610dff9061302d565b8015610e4c5780601f10610e2157610100808354040283529160200191610e4c565b820191906000526020600020905b815481529060010190602001808311610e2f57829003601f168201915b5050505050905090565b600080600090506000610e67610b57565b905060005b6004811015610eee57828510158015610ea65750818160048110610e9357610e92613197565b5b602002015183610ea39190612e4a565b85105b15610eb657809350505050610ef2565b818160048110610ec957610ec8613197565b5b602002015183610ed99190612e4a565b92508080610ee690613090565b915050610e6c565b5050505b919050565b610f09610f026112ab565b83836117f7565b5050565b60076020528060005260406000206000915054906101000a900473ffffffffffffffffffffffffffffffffffffffff1681565b7f000000000000000000000000000000000000000000000000000000000000000081565b610f75610f6f6112ab565b836114b2565b610fb4576040517f08c379a0000000000000000000000000000000000000000000000000000000008152600401610fab90612ccc565b60405180910390fd5b610fc084848484611964565b50505050565b6060610fd18261123f565b611010576040517f08c379a000000000000000000000000000000000000000000000000000000000815260040161100790612c4c565b60405180910390fd5b60006006600084815260200190815260200160002080546110309061302d565b80601f016020809104026020016040519081016040528092919081815260200182805461105c9061302d565b80156110a95780601f1061107e576101008083540402835291602001916110a9565b820191906000526020600020905b81548152906001019060200180831161108c57829003601f168201915b5050505050905060006110ba6119c0565b90506000815114156110d0578192505050611113565b6000825111156111055780826040516020016110ed929190612957565b60405160208183030381529060405292505050611113565b61110e846119d7565b925050505b919050565b7f000000000000000000000000000000000000000000000000000000000000000081565b606481565b6000600560008473ffffffffffffffffffffffffffffffffffffffff1673ffffffffffffffffffffffffffffffffffffffff16815260200190815260200160002060008373ffffffffffffffffffffffffffffffffffffffff1673ffffffffffffffffffffffffffffffffffffffff16815260200190815260200160002060009054906101000a900460ff16905092915050565b60007f01ffc9a7000000000000000000000000000000000000000000000000000000007bffffffffffffffffffffffffffffffffffffffffffffffffffffffff1916827bffffffffffffffffffffffffffffffffffffffffffffffffffffffff1916149050919050565b60008073ffffffffffffffffffffffffffffffffffffffff166002600084815260200190815260200160002060009054906101000a900473ffffffffffffffffffffffffffffffffffffffff1673ffffffffffffffffffffffffffffffffffffffff1614159050919050565b600033905090565b816004600083815260200190815260200160002060006101000a81548173ffffffffffffffffffffffffffffffffffffffff021916908373ffffffffffffffffffffffffffffffffffffffff160217905550808273ffffffffffffffffffffffffffffffffffffffff1661132683610b89565b73ffffffffffffffffffffffffffffffffffffffff167f8c5be1e5ebec7d5bd14f71427d1e84f3dd0314c0f7b2291e5b200ac8c7c3b92560405160405180910390a45050565b60006007600084815260200190815260200160002060009054906101000a900473ffffffffffffffffffffffffffffffffffffffff1690506000600c5490506001600c546113ba9190612e4a565b600c8190555060006064846000815181106113d8576113d7613197565b5b60200260200101516113ea91906130d9565b905060006113f782610e56565b90506114038484611a7e565b6114aa836008836004811061141b5761141a613197565b5b0180546114279061302d565b80601f01602080910402602001604051908101604052809291908181526020018280546114539061302d565b80156114a05780601f10611475576101008083540402835291602001916114a0565b820191906000526020600020905b81548152906001019060200180831161148357829003601f168201915b5050505050611a9c565b505050505050565b60006114bd8261123f565b6114fc576040517f08c379a00000000000000000000000000000000000000000000000000000000081526004016114f390612b8c565b60405180910390fd5b600061150783610b89565b90508073ffffffffffffffffffffffffffffffffffffffff168473ffffffffffffffffffffffffffffffffffffffff16148061154957506115488185611141565b5b8061158757508373ffffffffffffffffffffffffffffffffffffffff1661156f846106e2565b73ffffffffffffffffffffffffffffffffffffffff16145b91505092915050565b8273ffffffffffffffffffffffffffffffffffffffff166115b082610b89565b73ffffffffffffffffffffffffffffffffffffffff1614611606576040517f08c379a00000000000000000000000000000000000000000000000000000000081526004016115fd90612b0c565b60405180910390fd5b600073ffffffffffffffffffffffffffffffffffffffff168273ffffffffffffffffffffffffffffffffffffffff161415611676576040517f08c379a000000000000000000000000000000000000000000000000000000000815260040161166d90612b4c565b60405180910390fd5b611681838383611b10565b61168c6000826112b3565b6001600360008573ffffffffffffffffffffffffffffffffffffffff1673ffffffffffffffffffffffffffffffffffffffff16815260200190815260200160002060008282546116dc9190612ed1565b925050819055506001600360008473ffffffffffffffffffffffffffffffffffffffff1673ffffffffffffffffffffffffffffffffffffffff16815260200190815260200160002060008282546117339190612e4a565b92505081905550816002600083815260200190815260200160002060006101000a81548173ffffffffffffffffffffffffffffffffffffffff021916908373ffffffffffffffffffffffffffffffffffffffff160217905550808273ffffffffffffffffffffffffffffffffffffffff168473ffffffffffffffffffffffffffffffffffffffff167fddf252ad1be2c89b69c2b068fc378daa952ba7f163c4a11628f55a4df523b3ef60405160405180910390a46117f2838383611b15565b505050565b8173ffffffffffffffffffffffffffffffffffffffff168373ffffffffffffffffffffffffffffffffffffffff161415611866576040517f08c379a000000000000000000000000000000000000000000000000000000000815260040161185d90612b6c565b60405180910390fd5b80600560008573ffffffffffffffffffffffffffffffffffffffff1673ffffffffffffffffffffffffffffffffffffffff16815260200190815260200160002060008473ffffffffffffffffffffffffffffffffffffffff1673ffffffffffffffffffffffffffffffffffffffff16815260200190815260200160002060006101000a81548160ff0219169083151502179055508173ffffffffffffffffffffffffffffffffffffffff168373ffffffffffffffffffffffffffffffffffffffff167f17307eab39ab6107e8899845ad3d59bd9653f200f220920489ca2b5937696c31836040516119579190612a26565b60405180910390a3505050565b61196f848484611590565b61197b84848484611b1a565b6119ba576040517f08c379a00000000000000000000000000000000000000000000000000000000081526004016119b190612aec565b60405180910390fd5b50505050565b606060405180602001604052806000815250905090565b60606119e28261123f565b611a21576040517f08c379a0000000000000000000000000000000000000000000000000000000008152600401611a1890612c8c565b60405180910390fd5b6000611a2b6119c0565b90506000815111611a4b5760405180602001604052806000815250611a76565b80611a5584611cb1565b604051602001611a66929190612957565b6040516020818303038152906040525b915050919050565b611a98828260405180602001604052806000815250611e12565b5050565b611aa58261123f565b611ae4576040517f08c379a0000000000000000000000000000000000000000000000000000000008152600401611adb90612c0c565b60405180910390fd5b80600660008481526020019081526020016000209080519060200190611b0b92919061208c565b505050565b505050565b505050565b6000611b3b8473ffffffffffffffffffffffffffffffffffffffff16611e6d565b15611ca4578373ffffffffffffffffffffffffffffffffffffffff1663150b7a02611b646112ab565b8786866040518563ffffffff1660e01b8152600401611b8694939291906129bf565b602060405180830381600087803b158015611ba057600080fd5b505af1925050508015611bd157506040513d601f19601f82011682018060405250810190611bce91906124ab565b60015b611c54573d8060008114611c01576040519150601f19603f3d011682016040523d82523d6000602084013e611c06565b606091505b50600081511415611c4c576040517f08c379a0000000000000000000000000000000000000000000000000000000008152600401611c4390612aec565b60405180910390fd5b805181602001fd5b63150b7a0260e01b7bffffffffffffffffffffffffffffffffffffffffffffffffffffffff1916817bffffffffffffffffffffffffffffffffffffffffffffffffffffffff191614915050611ca9565b600190505b949350505050565b60606000821415611cf9576040518060400160405280600181526020017f30000000000000000000000000000000000000000000000000000000000000008152509050611e0d565b600082905060005b60008214611d2b578080611d1490613090565b915050600a82611d249190612ea0565b9150611d01565b60008167ffffffffffffffff811115611d4757611d466131c6565b5b6040519080825280601f01601f191660200182016040528015611d795781602001600182028036833780820191505090505b5090505b60008514611e0657600182611d929190612ed1565b9150600a85611da191906130d9565b6030611dad9190612e4a565b60f81b818381518110611dc357611dc2613197565b5b60200101907effffffffffffffffffffffffffffffffffffffffffffffffffffffffffffff1916908160001a905350600a85611dff9190612ea0565b9450611d7d565b8093505050505b919050565b611e1c8383611e90565b611e296000848484611b1a565b611e68576040517f08c379a0000000000000000000000000000000000000000000000000000000008152600401611e5f90612aec565b60405180910390fd5b505050565b6000808273ffffffffffffffffffffffffffffffffffffffff163b119050919050565b600073ffffffffffffffffffffffffffffffffffffffff168273ffffffffffffffffffffffffffffffffffffffff161415611f00576040517f08c379a0000000000000000000000000000000000000000000000000000000008152600401611ef790612c2c565b60405180910390fd5b611f098161123f565b15611f49576040517f08c379a0000000000000000000000000000000000000000000000000000000008152600401611f4090612b2c565b60405180910390fd5b611f5560008383611b10565b6001600360008473ffffffffffffffffffffffffffffffffffffffff1673ffffffffffffffffffffffffffffffffffffffff1681526020019081526020016000206000828254611fa59190612e4a565b92505081905550816002600083815260200190815260200160002060006101000a81548173ffffffffffffffffffffffffffffffffffffffff021916908373ffffffffffffffffffffffffffffffffffffffff160217905550808273ffffffffffffffffffffffffffffffffffffffff16600073ffffffffffffffffffffffffffffffffffffffff167fddf252ad1be2c89b69c2b068fc378daa952ba7f163c4a11628f55a4df523b3ef60405160405180910390a461206660008383611b15565b5050565b6040518060800160405280600490602082028036833780820191505090505090565b8280546120989061302d565b90600052602060002090601f0160209004810192826120ba5760008555612101565b82601f106120d357805160ff1916838001178555612101565b82800160010185558215612101579182015b828111156121005782518255916020019190600101906120e5565b5b50905061210e9190612112565b5090565b5b8082111561212b576000816000905550600101612113565b5090565b600061214261213d84612d7d565b612d58565b90508083825260208201905082856020860282011115612165576121646131fa565b5b60005b85811015612195578161217b8882612291565b845260208401935060208301925050600181019050612168565b5050509392505050565b60006121b26121ad84612da9565b612d58565b9050828152602081018484840111156121ce576121cd6131ff565b5b6121d9848285612feb565b509392505050565b6000813590506121f08161369d565b92915050565b600082601f83011261220b5761220a6131f5565b5b813561221b84826020860161212f565b91505092915050565b600081359050612233816136b4565b92915050565b600081359050612248816136cb565b92915050565b60008151905061225d816136cb565b92915050565b600082601f830112612278576122776131f5565b5b813561228884826020860161219f565b91505092915050565b6000813590506122a0816136e2565b92915050565b6000815190506122b5816136e2565b92915050565b6000602082840312156122d1576122d0613209565b5b60006122df848285016121e1565b91505092915050565b600080604083850312156122ff576122fe613209565b5b600061230d858286016121e1565b925050602061231e858286016121e1565b9150509250929050565b60008060006060848603121561234157612340613209565b5b600061234f868287016121e1565b9350506020612360868287016121e1565b925050604061237186828701612291565b9150509250925092565b6000806000806080858703121561239557612394613209565b5b60006123a3878288016121e1565b94505060206123b4878288016121e1565b93505060406123c587828801612291565b925050606085013567ffffffffffffffff8111156123e6576123e5613204565b5b6123f287828801612263565b91505092959194509250565b6000806040838503121561241557612414613209565b5b6000612423858286016121e1565b925050602061243485828601612224565b9150509250929050565b6000806040838503121561245557612454613209565b5b6000612463858286016121e1565b925050602061247485828601612291565b9150509250929050565b60006020828403121561249457612493613209565b5b60006124a284828501612239565b91505092915050565b6000602082840312156124c1576124c0613209565b5b60006124cf8482850161224e565b91505092915050565b6000602082840312156124ee576124ed613209565b5b60006124fc84828501612291565b91505092915050565b60006020828403121561251b5761251a613209565b5b6000612529848285016122a6565b91505092915050565b6000806040838503121561254957612548613209565b5b600061255785828601612291565b925050602083013567ffffffffffffffff81111561257857612577613204565b5b612584858286016121f6565b9150509250929050565b600061259a838361291b565b60208301905092915050565b6125af81612f05565b82525050565b6125be81612de4565b6125c88184612e12565b92506125d382612dda565b8060005b838110156126045781516125eb878261258e565b96506125f683612e05565b9250506001810190506125d7565b505050505050565b61261581612f17565b82525050565b61262481612f23565b82525050565b600061263582612def565b61263f8185612e1d565b935061264f818560208601612ffa565b6126588161320e565b840191505092915050565b61266c81612fb5565b82525050565b600061267d82612dfa565b6126878185612e2e565b9350612697818560208601612ffa565b6126a08161320e565b840191505092915050565b60006126b682612dfa565b6126c08185612e3f565b93506126d0818560208601612ffa565b80840191505092915050565b60006126e9603283612e2e565b91506126f48261321f565b604082019050919050565b600061270c602583612e2e565b91506127178261326e565b604082019050919050565b600061272f601c83612e2e565b915061273a826132bd565b602082019050919050565b6000612752602483612e2e565b915061275d826132e6565b604082019050919050565b6000612775601983612e2e565b915061278082613335565b602082019050919050565b6000612798602c83612e2e565b91506127a38261335e565b604082019050919050565b60006127bb603883612e2e565b91506127c6826133ad565b604082019050919050565b60006127de602a83612e2e565b91506127e9826133fc565b604082019050919050565b6000612801602983612e2e565b915061280c8261344b565b604082019050919050565b6000612824602e83612e2e565b915061282f8261349a565b604082019050919050565b6000612847602083612e2e565b9150612852826134e9565b602082019050919050565b600061286a603183612e2e565b915061287582613512565b604082019050919050565b600061288d602c83612e2e565b915061289882613561565b604082019050919050565b60006128b0602f83612e2e565b91506128bb826135b0565b604082019050919050565b60006128d3602183612e2e565b91506128de826135ff565b604082019050919050565b60006128f6603183612e2e565b91506129018261364e565b604082019050919050565b61291581612f59565b82525050565b61292481612f87565b82525050565b61293381612f87565b82525050565b61294281612f91565b82525050565b61295181612fa1565b82525050565b600061296382856126ab565b915061296f82846126ab565b91508190509392505050565b600060208201905061299060008301846125a6565b92915050565b60006040820190506129ab60008301856125a6565b6129b860208301846125a6565b9392505050565b60006080820190506129d460008301876125a6565b6129e160208301866125a6565b6129ee604083018561292a565b8181036060830152612a00818461262a565b905095945050505050565b6000608082019050612a2060008301846125b5565b92915050565b6000602082019050612a3b600083018461260c565b92915050565b6000602082019050612a56600083018461261b565b92915050565b600060a082019050612a71600083018861261b565b612a7e6020830187612948565b612a8b604083018661290c565b612a986060830185612939565b612aa56080830184612939565b9695505050505050565b6000602082019050612ac46000830184612663565b92915050565b60006020820190508181036000830152612ae48184612672565b905092915050565b60006020820190508181036000830152612b05816126dc565b9050919050565b60006020820190508181036000830152612b25816126ff565b9050919050565b60006020820190508181036000830152612b4581612722565b9050919050565b60006020820190508181036000830152612b6581612745565b9050919050565b60006020820190508181036000830152612b8581612768565b9050919050565b60006020820190508181036000830152612ba58161278b565b9050919050565b60006020820190508181036000830152612bc5816127ae565b9050919050565b60006020820190508181036000830152612be5816127d1565b9050919050565b60006020820190508181036000830152612c05816127f4565b9050919050565b60006020820190508181036000830152612c2581612817565b9050919050565b60006020820190508181036000830152612c458161283a565b9050919050565b60006020820190508181036000830152612c658161285d565b9050919050565b60006020820190508181036000830152612c8581612880565b9050919050565b60006020820190508181036000830152612ca5816128a3565b9050919050565b60006020820190508181036000830152612cc5816128c6565b9050919050565b60006020820190508181036000830152612ce5816128e9565b9050919050565b6000602082019050612d01600083018461290c565b92915050565b6000602082019050612d1c600083018461292a565b92915050565b6000602082019050612d376000830184612939565b92915050565b6000602082019050612d526000830184612948565b92915050565b6000612d62612d73565b9050612d6e828261305f565b919050565b6000604051905090565b600067ffffffffffffffff821115612d9857612d976131c6565b5b602082029050602081019050919050565b600067ffffffffffffffff821115612dc457612dc36131c6565b5b612dcd8261320e565b9050602081019050919050565b6000819050919050565b600060049050919050565b600081519050919050565b600081519050919050565b6000602082019050919050565b600081905092915050565b600082825260208201905092915050565b600082825260208201905092915050565b600081905092915050565b6000612e5582612f87565b9150612e6083612f87565b9250827fffffffffffffffffffffffffffffffffffffffffffffffffffffffffffffffff03821115612e9557612e9461310a565b5b828201905092915050565b6000612eab82612f87565b9150612eb683612f87565b925082612ec657612ec5613139565b5b828204905092915050565b6000612edc82612f87565b9150612ee783612f87565b925082821015612efa57612ef961310a565b5b828203905092915050565b6000612f1082612f67565b9050919050565b60008115159050919050565b6000819050919050565b60007fffffffff0000000000000000000000000000000000000000000000000000000082169050919050565b600061ffff82169050919050565b600073ffffffffffffffffffffffffffffffffffffffff82169050919050565b6000819050919050565b600063ffffffff82169050919050565b600067ffffffffffffffff82169050919050565b6000612fc082612fc7565b9050919050565b6000612fd282612fd9565b9050919050565b6000612fe482612f67565b9050919050565b82818337600083830152505050565b60005b83811015613018578082015181840152602081019050612ffd565b83811115613027576000848401525b50505050565b6000600282049050600182168061304557607f821691505b6020821081141561305957613058613168565b5b50919050565b6130688261320e565b810181811067ffffffffffffffff82111715613087576130866131c6565b5b80604052505050565b600061309b82612f87565b91507fffffffffffffffffffffffffffffffffffffffffffffffffffffffffffffffff8214156130ce576130cd61310a565b5b600182019050919050565b60006130e482612f87565b91506130ef83612f87565b9250826130ff576130fe613139565b5b828206905092915050565b7f4e487b7100000000000000000000000000000000000000000000000000000000600052601160045260246000fd5b7f4e487b7100000000000000000000000000000000000000000000000000000000600052601260045260246000fd5b7f4e487b7100000000000000000000000000000000000000000000000000000000600052602260045260246000fd5b7f4e487b7100000000000000000000000000000000000000000000000000000000600052603260045260246000fd5b7f4e487b7100000000000000000000000000000000000000000000000000000000600052604160045260246000fd5b600080fd5b600080fd5b600080fd5b600080fd5b600080fd5b6000601f19601f8301169050919050565b7f4552433732313a207472616e7366657220746f206e6f6e20455243373231526560008201527f63656976657220696d706c656d656e7465720000000000000000000000000000602082015250565b7f4552433732313a207472616e736665722066726f6d20696e636f72726563742060008201527f6f776e6572000000000000000000000000000000000000000000000000000000602082015250565b7f4552433732313a20746f6b656e20616c7265616479206d696e74656400000000600082015250565b7f4552433732313a207472616e7366657220746f20746865207a65726f2061646460008201527f7265737300000000000000000000000000000000000000000000000000000000602082015250565b7f4552433732313a20617070726f766520746f2063616c6c657200000000000000600082015250565b7f4552433732313a206f70657261746f7220717565727920666f72206e6f6e657860008201527f697374656e7420746f6b656e0000000000000000000000000000000000000000602082015250565b7f4552433732313a20617070726f76652063616c6c6572206973206e6f74206f7760008201527f6e6572206e6f7220617070726f76656420666f7220616c6c0000000000000000602082015250565b7f4552433732313a2062616c616e636520717565727920666f7220746865207a6560008201527f726f206164647265737300000000000000000000000000000000000000000000602082015250565b7f4552433732313a206f776e657220717565727920666f72206e6f6e657869737460008201527f656e7420746f6b656e0000000000000000000000000000000000000000000000602082015250565b7f45524337323155524953746f726167653a2055524920736574206f66206e6f6e60008201527f6578697374656e7420746f6b656e000000000000000000000000000000000000602082015250565b7f4552433732313a206d696e7420746f20746865207a65726f2061646472657373600082015250565b7f45524337323155524953746f726167653a2055524920717565727920666f722060008201527f6e6f6e6578697374656e7420746f6b656e000000000000000000000000000000602082015250565b7f4552433732313a20617070726f76656420717565727920666f72206e6f6e657860008201527f697374656e7420746f6b656e0000000000000000000000000000000000000000602082015250565b7f4552433732314d657461646174613a2055524920717565727920666f72206e6f60008201527f6e6578697374656e7420746f6b656e0000000000000000000000000000000000602082015250565b7f4552433732313a20617070726f76616c20746f2063757272656e74206f776e6560008201527f7200000000000000000000000000000000000000000000000000000000000000602082015250565b7f4552433732313a207472616e736665722063616c6c6572206973206e6f74206f60008201527f776e6572206e6f7220617070726f766564000000000000000000000000000000602082015250565b6136a681612f05565b81146136b157600080fd5b50565b6136bd81612f17565b81146136c857600080fd5b50565b6136d481612f2d565b81146136df57600080fd5b50565b6136eb81612f87565b81146136f657600080fd5b5056fea2646970667358221220ea1dca21b4fa1dbf94cd38ce8fd5ee8ed20b9e2e303ef652f687cc19bde711a464736f6c63430008070033",
  "devdoc": {
    "kind": "dev",
    "methods": {
      "approve(address,uint256)": {
        "details": "See {IERC721-approve}."
      },
      "balanceOf(address)": {
        "details": "See {IERC721-balanceOf}."
      },
      "getApproved(uint256)": {
        "details": "See {IERC721-getApproved}."
      },
      "isApprovedForAll(address,address)": {
        "details": "See {IERC721-isApprovedForAll}."
      },
      "name()": {
        "details": "See {IERC721Metadata-name}."
      },
      "ownerOf(uint256)": {
        "details": "See {IERC721-ownerOf}."
      },
      "safeTransferFrom(address,address,uint256)": {
        "details": "See {IERC721-safeTransferFrom}."
      },
      "safeTransferFrom(address,address,uint256,bytes)": {
        "details": "See {IERC721-safeTransferFrom}."
      },
      "setApprovalForAll(address,bool)": {
        "details": "See {IERC721-setApprovalForAll}."
      },
      "supportsInterface(bytes4)": {
        "details": "See {IERC165-supportsInterface}."
      },
      "symbol()": {
        "details": "See {IERC721Metadata-symbol}."
      },
      "tokenURI(uint256)": {
        "details": "See {IERC721Metadata-tokenURI}."
      },
      "transferFrom(address,address,uint256)": {
        "details": "See {IERC721-transferFrom}."
      }
    },
    "version": 1
  },
  "userdoc": {
    "kind": "user",
    "methods": {},
    "version": 1
  },
  "storageLayout": {
    "storage": [
      {
        "astId": 172,
        "contract": "contracts/TradingCardNFT.sol:TradingCardNFT",
        "label": "_name",
        "offset": 0,
        "slot": "0",
        "type": "t_string_storage"
      },
      {
        "astId": 174,
        "contract": "contracts/TradingCardNFT.sol:TradingCardNFT",
        "label": "_symbol",
        "offset": 0,
        "slot": "1",
        "type": "t_string_storage"
      },
      {
        "astId": 178,
        "contract": "contracts/TradingCardNFT.sol:TradingCardNFT",
        "label": "_owners",
        "offset": 0,
        "slot": "2",
        "type": "t_mapping(t_uint256,t_address)"
      },
      {
        "astId": 182,
        "contract": "contracts/TradingCardNFT.sol:TradingCardNFT",
        "label": "_balances",
        "offset": 0,
        "slot": "3",
        "type": "t_mapping(t_address,t_uint256)"
      },
      {
        "astId": 186,
        "contract": "contracts/TradingCardNFT.sol:TradingCardNFT",
        "label": "_tokenApprovals",
        "offset": 0,
        "slot": "4",
        "type": "t_mapping(t_uint256,t_address)"
      },
      {
        "astId": 192,
        "contract": "contracts/TradingCardNFT.sol:TradingCardNFT",
        "label": "_operatorApprovals",
        "offset": 0,
        "slot": "5",
        "type": "t_mapping(t_address,t_mapping(t_address,t_bool))"
      },
      {
        "astId": 1159,
        "contract": "contracts/TradingCardNFT.sol:TradingCardNFT",
        "label": "_tokenURIs",
        "offset": 0,
        "slot": "6",
        "type": "t_mapping(t_uint256,t_string_storage)"
      },
      {
        "astId": 1888,
        "contract": "contracts/TradingCardNFT.sol:TradingCardNFT",
        "label": "s_requestIdToSender",
        "offset": 0,
        "slot": "7",
        "type": "t_mapping(t_uint256,t_address)"
      },
      {
        "astId": 1892,
        "contract": "contracts/TradingCardNFT.sol:TradingCardNFT",
        "label": "s_characterTokenUris",
        "offset": 0,
        "slot": "8",
        "type": "t_array(t_string_storage)4_storage"
      },
      {
        "astId": 1894,
        "contract": "contracts/TradingCardNFT.sol:TradingCardNFT",
        "label": "s_tokenCounter",
        "offset": 0,
        "slot": "12",
        "type": "t_uint256"
      }
    ],
    "types": {
      "t_address": {
        "encoding": "inplace",
        "label": "address",
        "numberOfBytes": "20"
      },
      "t_array(t_string_storage)4_storage": {
        "base": "t_string_storage",
        "encoding": "inplace",
        "label": "string[4]",
        "numberOfBytes": "128"
      },
      "t_bool": {
        "encoding": "inplace",
        "label": "bool",
        "numberOfBytes": "1"
      },
      "t_mapping(t_address,t_bool)": {
        "encoding": "mapping",
        "key": "t_address",
        "label": "mapping(address => bool)",
        "numberOfBytes": "32",
        "value": "t_bool"
      },
      "t_mapping(t_address,t_mapping(t_address,t_bool))": {
        "encoding": "mapping",
        "key": "t_address",
        "label": "mapping(address => mapping(address => bool))",
        "numberOfBytes": "32",
        "value": "t_mapping(t_address,t_bool)"
      },
      "t_mapping(t_address,t_uint256)": {
        "encoding": "mapping",
        "key": "t_address",
        "label": "mapping(address => uint256)",
        "numberOfBytes": "32",
        "value": "t_uint256"
      },
      "t_mapping(t_uint256,t_address)": {
        "encoding": "mapping",
        "key": "t_uint256",
        "label": "mapping(uint256 => address)",
        "numberOfBytes": "32",
        "value": "t_address"
      },
      "t_mapping(t_uint256,t_string_storage)": {
        "encoding": "mapping",
        "key": "t_uint256",
        "label": "mapping(uint256 => string)",
        "numberOfBytes": "32",
        "value": "t_string_storage"
      },
      "t_string_storage": {
        "encoding": "bytes",
        "label": "string",
        "numberOfBytes": "32"
      },
      "t_uint256": {
        "encoding": "inplace",
        "label": "uint256",
        "numberOfBytes": "32"
      }
    }
  }
}